{
  "_format": "hh-sol-artifact-1",
  "contractName": "FHERC20",
  "sourceName": "contracts/experimental/token/FHERC20/FHERC20.sol",
  "abi": [
    {
      "inputs": [
        {
          "internalType": "string",
          "name": "name",
          "type": "string"
        },
        {
          "internalType": "string",
          "name": "symbol",
          "type": "string"
        }
      ],
      "stateMutability": "nonpayable",
      "type": "constructor"
    },
    {
      "inputs": [],
      "name": "ECDSAInvalidSignature",
      "type": "error"
    },
    {
      "inputs": [
        {
          "internalType": "uint256",
          "name": "length",
          "type": "uint256"
        }
      ],
      "name": "ECDSAInvalidSignatureLength",
      "type": "error"
    },
    {
      "inputs": [
        {
          "internalType": "bytes32",
          "name": "s",
          "type": "bytes32"
        }
      ],
      "name": "ECDSAInvalidSignatureS",
      "type": "error"
    },
    {
      "inputs": [
        {
          "internalType": "address",
          "name": "spender",
          "type": "address"
        },
        {
          "internalType": "uint256",
          "name": "allowance",
          "type": "uint256"
        },
        {
          "internalType": "uint256",
          "name": "needed",
          "type": "uint256"
        }
      ],
      "name": "ERC20InsufficientAllowance",
      "type": "error"
    },
    {
      "inputs": [
        {
          "internalType": "address",
          "name": "sender",
          "type": "address"
        },
        {
          "internalType": "uint256",
          "name": "balance",
          "type": "uint256"
        },
        {
          "internalType": "uint256",
          "name": "needed",
          "type": "uint256"
        }
      ],
      "name": "ERC20InsufficientBalance",
      "type": "error"
    },
    {
      "inputs": [
        {
          "internalType": "address",
          "name": "approver",
          "type": "address"
        }
      ],
      "name": "ERC20InvalidApprover",
      "type": "error"
    },
    {
      "inputs": [
        {
          "internalType": "address",
          "name": "receiver",
          "type": "address"
        }
      ],
      "name": "ERC20InvalidReceiver",
      "type": "error"
    },
    {
      "inputs": [
        {
          "internalType": "address",
          "name": "sender",
          "type": "address"
        }
      ],
      "name": "ERC20InvalidSender",
      "type": "error"
    },
    {
      "inputs": [
        {
          "internalType": "address",
          "name": "spender",
          "type": "address"
        }
      ],
      "name": "ERC20InvalidSpender",
      "type": "error"
    },
    {
      "inputs": [],
      "name": "ErrorInsufficientFunds",
      "type": "error"
    },
    {
      "inputs": [],
      "name": "InvalidShortString",
      "type": "error"
    },
    {
      "inputs": [],
      "name": "SignerNotMessageSender",
      "type": "error"
    },
    {
      "inputs": [],
      "name": "SignerNotOwner",
      "type": "error"
    },
    {
      "inputs": [
        {
          "internalType": "string",
          "name": "str",
          "type": "string"
        }
      ],
      "name": "StringTooLong",
      "type": "error"
    },
    {
      "anonymous": false,
      "inputs": [
        {
          "indexed": true,
          "internalType": "address",
          "name": "owner",
          "type": "address"
        },
        {
          "indexed": true,
          "internalType": "address",
          "name": "spender",
          "type": "address"
        },
        {
          "indexed": false,
          "internalType": "uint256",
          "name": "value",
          "type": "uint256"
        }
      ],
      "name": "Approval",
      "type": "event"
    },
    {
      "anonymous": false,
      "inputs": [
        {
          "indexed": true,
          "internalType": "address",
          "name": "owner",
          "type": "address"
        },
        {
          "indexed": true,
          "internalType": "address",
          "name": "spender",
          "type": "address"
        }
      ],
      "name": "ApprovalEncrypted",
      "type": "event"
    },
    {
      "anonymous": false,
      "inputs": [],
      "name": "EIP712DomainChanged",
      "type": "event"
    },
    {
      "anonymous": false,
      "inputs": [
        {
          "indexed": true,
          "internalType": "address",
          "name": "from",
          "type": "address"
        },
        {
          "indexed": true,
          "internalType": "address",
          "name": "to",
          "type": "address"
        },
        {
          "indexed": false,
          "internalType": "uint256",
          "name": "value",
          "type": "uint256"
        }
      ],
      "name": "Transfer",
      "type": "event"
    },
    {
      "anonymous": false,
      "inputs": [
        {
          "indexed": true,
          "internalType": "address",
          "name": "from",
          "type": "address"
        },
        {
          "indexed": true,
          "internalType": "address",
          "name": "to",
          "type": "address"
        }
      ],
      "name": "TransferEncrypted",
      "type": "event"
    },
    {
      "inputs": [
        {
          "internalType": "address",
          "name": "to",
          "type": "address"
        },
        {
          "internalType": "euint128",
          "name": "amount",
          "type": "uint256"
        }
      ],
      "name": "_transferEncrypted",
      "outputs": [
        {
          "internalType": "euint128",
          "name": "",
          "type": "uint256"
        }
      ],
      "stateMutability": "nonpayable",
      "type": "function"
    },
    {
      "inputs": [
        {
          "internalType": "address",
          "name": "from",
          "type": "address"
        },
        {
          "internalType": "address",
          "name": "to",
          "type": "address"
        },
        {
          "internalType": "euint128",
          "name": "value",
          "type": "uint256"
        }
      ],
      "name": "_transferFromEncrypted",
      "outputs": [
        {
          "internalType": "euint128",
          "name": "",
          "type": "uint256"
        }
      ],
      "stateMutability": "nonpayable",
      "type": "function"
    },
    {
      "inputs": [
        {
          "internalType": "address",
          "name": "owner",
          "type": "address"
        },
        {
          "internalType": "address",
          "name": "spender",
          "type": "address"
        }
      ],
      "name": "allowance",
      "outputs": [
        {
          "internalType": "uint256",
          "name": "",
          "type": "uint256"
        }
      ],
      "stateMutability": "view",
      "type": "function"
    },
    {
      "inputs": [
        {
          "internalType": "address",
          "name": "owner",
          "type": "address"
        },
        {
          "internalType": "address",
          "name": "spender",
          "type": "address"
        },
        {
          "components": [
            {
              "internalType": "bytes32",
              "name": "publicKey",
              "type": "bytes32"
            },
            {
              "internalType": "bytes",
              "name": "signature",
              "type": "bytes"
            }
          ],
          "internalType": "struct Permission",
          "name": "permission",
          "type": "tuple"
        }
      ],
      "name": "allowanceEncrypted",
      "outputs": [
        {
          "internalType": "string",
          "name": "",
          "type": "string"
        }
      ],
      "stateMutability": "view",
      "type": "function"
    },
    {
      "inputs": [
        {
          "internalType": "address",
          "name": "spender",
          "type": "address"
        },
        {
          "internalType": "uint256",
          "name": "value",
          "type": "uint256"
        }
      ],
      "name": "approve",
      "outputs": [
        {
          "internalType": "bool",
          "name": "",
          "type": "bool"
        }
      ],
      "stateMutability": "nonpayable",
      "type": "function"
    },
    {
      "inputs": [
        {
          "internalType": "address",
          "name": "spender",
          "type": "address"
        },
        {
          "components": [
            {
              "internalType": "bytes",
              "name": "data",
              "type": "bytes"
            },
            {
              "internalType": "int32",
              "name": "securityZone",
              "type": "int32"
            }
          ],
          "internalType": "struct inEuint128",
          "name": "value",
          "type": "tuple"
        }
      ],
      "name": "approveEncrypted",
      "outputs": [
        {
          "internalType": "bool",
          "name": "",
          "type": "bool"
        }
      ],
      "stateMutability": "nonpayable",
      "type": "function"
    },
    {
      "inputs": [
        {
          "internalType": "address",
          "name": "account",
          "type": "address"
        }
      ],
      "name": "balanceOf",
      "outputs": [
        {
          "internalType": "uint256",
          "name": "",
          "type": "uint256"
        }
      ],
      "stateMutability": "view",
      "type": "function"
    },
    {
      "inputs": [
        {
          "internalType": "address",
          "name": "account",
          "type": "address"
        },
        {
          "components": [
            {
              "internalType": "bytes32",
              "name": "publicKey",
              "type": "bytes32"
            },
            {
              "internalType": "bytes",
              "name": "signature",
              "type": "bytes"
            }
          ],
          "internalType": "struct Permission",
          "name": "auth",
          "type": "tuple"
        }
      ],
      "name": "balanceOfEncrypted",
      "outputs": [
        {
          "internalType": "string",
          "name": "",
          "type": "string"
        }
      ],
      "stateMutability": "view",
      "type": "function"
    },
    {
      "inputs": [],
      "name": "decimals",
      "outputs": [
        {
          "internalType": "uint8",
          "name": "",
          "type": "uint8"
        }
      ],
      "stateMutability": "view",
      "type": "function"
    },
    {
      "inputs": [],
      "name": "eip712Domain",
      "outputs": [
        {
          "internalType": "bytes1",
          "name": "fields",
          "type": "bytes1"
        },
        {
          "internalType": "string",
          "name": "name",
          "type": "string"
        },
        {
          "internalType": "string",
          "name": "version",
          "type": "string"
        },
        {
          "internalType": "uint256",
          "name": "chainId",
          "type": "uint256"
        },
        {
          "internalType": "address",
          "name": "verifyingContract",
          "type": "address"
        },
        {
          "internalType": "bytes32",
          "name": "salt",
          "type": "bytes32"
        },
        {
          "internalType": "uint256[]",
          "name": "extensions",
          "type": "uint256[]"
        }
      ],
      "stateMutability": "view",
      "type": "function"
    },
    {
      "inputs": [],
      "name": "name",
      "outputs": [
        {
          "internalType": "string",
          "name": "",
          "type": "string"
        }
      ],
      "stateMutability": "view",
      "type": "function"
    },
    {
      "inputs": [],
      "name": "symbol",
      "outputs": [
        {
          "internalType": "string",
          "name": "",
          "type": "string"
        }
      ],
      "stateMutability": "view",
      "type": "function"
    },
    {
      "inputs": [],
      "name": "totalSupply",
      "outputs": [
        {
          "internalType": "uint256",
          "name": "",
          "type": "uint256"
        }
      ],
      "stateMutability": "view",
      "type": "function"
    },
    {
      "inputs": [
        {
          "internalType": "address",
          "name": "to",
          "type": "address"
        },
        {
          "internalType": "uint256",
          "name": "value",
          "type": "uint256"
        }
      ],
      "name": "transfer",
      "outputs": [
        {
          "internalType": "bool",
          "name": "",
          "type": "bool"
        }
      ],
      "stateMutability": "nonpayable",
      "type": "function"
    },
    {
      "inputs": [
        {
          "internalType": "address",
          "name": "to",
          "type": "address"
        },
        {
          "components": [
            {
              "internalType": "bytes",
              "name": "data",
              "type": "bytes"
            },
            {
              "internalType": "int32",
              "name": "securityZone",
              "type": "int32"
            }
          ],
          "internalType": "struct inEuint128",
          "name": "encryptedAmount",
          "type": "tuple"
        }
      ],
      "name": "transferEncrypted",
      "outputs": [
        {
          "internalType": "euint128",
          "name": "",
          "type": "uint256"
        }
      ],
      "stateMutability": "nonpayable",
      "type": "function"
    },
    {
      "inputs": [
        {
          "internalType": "address",
          "name": "from",
          "type": "address"
        },
        {
          "internalType": "address",
          "name": "to",
          "type": "address"
        },
        {
          "internalType": "uint256",
          "name": "value",
          "type": "uint256"
        }
      ],
      "name": "transferFrom",
      "outputs": [
        {
          "internalType": "bool",
          "name": "",
          "type": "bool"
        }
      ],
      "stateMutability": "nonpayable",
      "type": "function"
    },
    {
      "inputs": [
        {
          "internalType": "address",
          "name": "from",
          "type": "address"
        },
        {
          "internalType": "address",
          "name": "to",
          "type": "address"
        },
        {
          "components": [
            {
              "internalType": "bytes",
              "name": "data",
              "type": "bytes"
            },
            {
              "internalType": "int32",
              "name": "securityZone",
              "type": "int32"
            }
          ],
          "internalType": "struct inEuint128",
          "name": "value",
          "type": "tuple"
        }
      ],
      "name": "transferFromEncrypted",
      "outputs": [
        {
          "internalType": "euint128",
          "name": "",
          "type": "uint256"
        }
      ],
      "stateMutability": "nonpayable",
      "type": "function"
    },
    {
      "inputs": [
        {
          "internalType": "uint32",
          "name": "amount",
          "type": "uint32"
        }
      ],
      "name": "unwrap",
      "outputs": [],
      "stateMutability": "nonpayable",
      "type": "function"
    },
    {
      "inputs": [
        {
          "internalType": "uint32",
          "name": "amount",
          "type": "uint32"
        }
      ],
      "name": "wrap",
      "outputs": [],
      "stateMutability": "nonpayable",
      "type": "function"
    }
  ],
  "bytecode": "0x6101606040526200001760006200019960201b60201c565b6009553480156200002757600080fd5b50604051620044893803806200448983398181016040528101906200004d91906200059f565b6040518060400160405280601181526020017f4668656e6978205065726d697373696f6e0000000000000000000000000000008152506040518060400160405280600381526020017f312e30000000000000000000000000000000000000000000000000000000000081525083838160039081620000cc91906200086f565b508060049081620000de91906200086f565b505050620000f7600583620001b760201b90919060201c565b610120818152505062000115600682620001b760201b90919060201c565b6101408181525050818051906020012060e08181525050808051906020012061010081815250504660a08181525050620001546200020f60201b60201c565b608081815250503073ffffffffffffffffffffffffffffffffffffffff1660c08173ffffffffffffffffffffffffffffffffffffffff16815250505050505062000d13565b6000620001b082600460006200026c60201b60201c565b9050919050565b6000602083511015620001dd57620001d5836200032660201b60201c565b905062000209565b82620001ef836200039360201b60201c565b60000190816200020091906200086f565b5060ff60001b90505b92915050565b60007f8b73c3c69bb8fe3d512ecc4cf759cc79239f7b179b0ffacaa9a75d522b39400f60e05161010051463060405160200162000251959493929190620009c7565b60405160208183030381529060405280519060200120905090565b60006060608073ffffffffffffffffffffffffffffffffffffffff1663ba19ac286200029e876200039d60201b60201c565b86866040518463ffffffff1660e01b8152600401620002c09392919062000abd565b600060405180830381865afa158015620002de573d6000803e3d6000fd5b505050506040513d6000823e3d601f19601f8201168201806040525081019062000309919062000bb5565b90506200031c81620003fe60201b60201c565b9150509392505050565b600080829050601f815111156200037657826040517f305a27a90000000000000000000000000000000000000000000000000000000081526004016200036d919062000c58565b60405180910390fd5b805181620003849062000ca3565b60001c1760001b915050919050565b6000819050919050565b6060602067ffffffffffffffff811115620003bd57620003bc6200043b565b5b6040519080825280601f01601f191660200182016040528015620003f05781602001600182028036833780820191505090505b509050816020820152919050565b600060208201519050919050565b6000604051905090565b600080fd5b600080fd5b600080fd5b600080fd5b6000601f19601f8301169050919050565b7f4e487b7100000000000000000000000000000000000000000000000000000000600052604160045260246000fd5b62000475826200042a565b810181811067ffffffffffffffff821117156200049757620004966200043b565b5b80604052505050565b6000620004ac6200040c565b9050620004ba82826200046a565b919050565b600067ffffffffffffffff821115620004dd57620004dc6200043b565b5b620004e8826200042a565b9050602081019050919050565b60005b8381101562000515578082015181840152602081019050620004f8565b60008484015250505050565b6000620005386200053284620004bf565b620004a0565b90508281526020810184848401111562000557576200055662000425565b5b62000564848285620004f5565b509392505050565b600082601f83011262000584576200058362000420565b5b81516200059684826020860162000521565b91505092915050565b60008060408385031215620005b957620005b862000416565b5b600083015167ffffffffffffffff811115620005da57620005d96200041b565b5b620005e8858286016200056c565b925050602083015167ffffffffffffffff8111156200060c576200060b6200041b565b5b6200061a858286016200056c565b9150509250929050565b600081519050919050565b7f4e487b7100000000000000000000000000000000000000000000000000000000600052602260045260246000fd5b600060028204905060018216806200067757607f821691505b6020821081036200068d576200068c6200062f565b5b50919050565b60008190508160005260206000209050919050565b60006020601f8301049050919050565b600082821b905092915050565b600060088302620006f77fffffffffffffffffffffffffffffffffffffffffffffffffffffffffffffffff82620006b8565b620007038683620006b8565b95508019841693508086168417925050509392505050565b6000819050919050565b6000819050919050565b6000620007506200074a62000744846200071b565b62000725565b6200071b565b9050919050565b6000819050919050565b6200076c836200072f565b620007846200077b8262000757565b848454620006c5565b825550505050565b600090565b6200079b6200078c565b620007a881848462000761565b505050565b5b81811015620007d057620007c460008262000791565b600181019050620007ae565b5050565b601f8211156200081f57620007e98162000693565b620007f484620006a8565b8101602085101562000804578190505b6200081c6200081385620006a8565b830182620007ad565b50505b505050565b600082821c905092915050565b6000620008446000198460080262000824565b1980831691505092915050565b60006200085f838362000831565b9150826002028217905092915050565b6200087a8262000624565b67ffffffffffffffff8111156200089657620008956200043b565b5b620008a282546200065e565b620008af828285620007d4565b600060209050601f831160018114620008e75760008415620008d2578287015190505b620008de858262000851565b8655506200094e565b601f198416620008f78662000693565b60005b828110156200092157848901518255600182019150602085019450602081019050620008fa565b868310156200094157848901516200093d601f89168262000831565b8355505b6001600288020188555050505b505050505050565b6000819050919050565b6200096b8162000956565b82525050565b6200097c816200071b565b82525050565b600073ffffffffffffffffffffffffffffffffffffffff82169050919050565b6000620009af8262000982565b9050919050565b620009c181620009a2565b82525050565b600060a082019050620009de600083018862000960565b620009ed602083018762000960565b620009fc604083018662000960565b62000a0b606083018562000971565b62000a1a6080830184620009b6565b9695505050505050565b600081519050919050565b600082825260208201905092915050565b600062000a4d8262000a24565b62000a59818562000a2f565b935062000a6b818560208601620004f5565b62000a76816200042a565b840191505092915050565b600060ff82169050919050565b62000a998162000a81565b82525050565b60008160030b9050919050565b62000ab78162000a9f565b82525050565b6000606082019050818103600083015262000ad9818662000a40565b905062000aea602083018562000a8e565b62000af9604083018462000aac565b949350505050565b600067ffffffffffffffff82111562000b1f5762000b1e6200043b565b5b62000b2a826200042a565b9050602081019050919050565b600062000b4e62000b488462000b01565b620004a0565b90508281526020810184848401111562000b6d5762000b6c62000425565b5b62000b7a848285620004f5565b509392505050565b600082601f83011262000b9a5762000b9962000420565b5b815162000bac84826020860162000b37565b91505092915050565b60006020828403121562000bce5762000bcd62000416565b5b600082015167ffffffffffffffff81111562000bef5762000bee6200041b565b5b62000bfd8482850162000b82565b91505092915050565b600082825260208201905092915050565b600062000c248262000624565b62000c30818562000c06565b935062000c42818560208601620004f5565b62000c4d816200042a565b840191505092915050565b6000602082019050818103600083015262000c74818462000c17565b905092915050565b6000819050602082019050919050565b600062000c9a825162000956565b80915050919050565b600062000cb08262000a24565b8262000cbc8462000c7c565b905062000cc98162000c8c565b9250602082101562000d0c5762000d077fffffffffffffffffffffffffffffffffffffffffffffffffffffffffffffffff83602003600802620006b8565b831692505b5050919050565b60805160a05160c05160e05161010051610120516101405161371b62000d6e60003960006113c60152600061138b015260006122c00152600061229f01526000611961015260006119b7015260006119e0015261371b6000f3fe608060405234801561001057600080fd5b50600436106101215760003560e01c80638468bfc0116100ad578063bf34a8ab11610071578063bf34a8ab1461034a578063ce03f2e11461037a578063dd62ed3e146103aa578063dfbe0e2c146103da578063f9e23e051461040a57610121565b80638468bfc01461028c57806384b0196e146102bc57806395d89b41146102e05780639f284be7146102fe578063a9059cbb1461031a57610121565b8063313ce567116100f4578063313ce567146101c2578063398038ac146101e057806360277204146102105780636e0505e11461024057806370a082311461025c57610121565b806306fdde0314610126578063095ea7b31461014457806318160ddd1461017457806323b872dd14610192575b600080fd5b61012e61043a565b60405161013b91906126e8565b60405180910390f35b61015e600480360381019061015991906127b2565b6104cc565b60405161016b919061280d565b60405180910390f35b61017c6104ef565b6040516101899190612837565b60405180910390f35b6101ac60048036038101906101a79190612852565b6104f9565b6040516101b9919061280d565b60405180910390f35b6101ca610528565b6040516101d791906128c1565b60405180910390f35b6101fa60048036038101906101f59190612900565b610531565b604051610207919061280d565b60405180910390f35b61022a60048036038101906102259190612b3d565b610559565b60405161023791906126e8565b60405180910390f35b61025a60048036038101906102559190612bd5565b61068f565b005b61027660048036038101906102719190612c02565b6107d2565b6040516102839190612837565b60405180910390f35b6102a660048036038101906102a19190612c5b565b61081a565b6040516102b39190612ce9565b60405180910390f35b6102c4610845565b6040516102d79796959493929190612e1b565b60405180910390f35b6102e86108ef565b6040516102f591906126e8565b60405180910390f35b61031860048036038101906103139190612bd5565b610981565b005b610334600480360381019061032f91906127b2565b610a8e565b604051610341919061280d565b60405180910390f35b610364600480360381019061035f9190612e9f565b610ab1565b6040516103719190612ce9565b60405180910390f35b610394600480360381019061038f9190612900565b610ac6565b6040516103a19190612ce9565b60405180910390f35b6103c460048036038101906103bf9190612edf565b610aeb565b6040516103d19190612837565b60405180910390f35b6103f460048036038101906103ef9190612f1f565b610b72565b6040516104019190612ce9565b60405180910390f35b610424600480360381019061041f9190612fad565b610b99565b60405161043191906126e8565b60405180910390f35b6060600380546104499061304b565b80601f01602080910402602001604051908101604052809291908181526020018280546104759061304b565b80156104c25780601f10610497576101008083540402835291602001916104c2565b820191906000526020600020905b8154815290600101906020018083116104a557829003601f168201915b5050505050905090565b6000806104d7610cd6565b90506104e4818585610cde565b600191505092915050565b6000600254905090565b600080610504610cd6565b9050610511858285610cf0565b61051c858585610d84565b60019150509392505050565b60006012905090565b600061054f338461054a8561054590613121565b610e78565b610e93565b6001905092915050565b6060818360006105b47f6bdaeb2d29561f159c7ef98b16b27015fb2aeb87209c7ee656226d912f59927d8460000151604051602001610599929190613134565b60405160208183030381529060405280519060200120610ffd565b905060006105c6828560200151611017565b90508273ffffffffffffffffffffffffffffffffffffffff168173ffffffffffffffffffffffffffffffffffffffff161461062d576040517f51c65eae00000000000000000000000000000000000000000000000000000000815260040160405180910390fd5b6106838660000151600760008a73ffffffffffffffffffffffffffffffffffffffff1673ffffffffffffffffffffffffffffffffffffffff1681526020019081526020016000205461104390919063ffffffff16565b94505050505092915050565b60006106a08263ffffffff16611057565b905060006107096106f983600760003373ffffffffffffffffffffffffffffffffffffffff1673ffffffffffffffffffffffffffffffffffffffff1681526020019081526020016000205461106d90919063ffffffff16565b836107046000611057565b611081565b9050610754600760003373ffffffffffffffffffffffffffffffffffffffff1673ffffffffffffffffffffffffffffffffffffffff16815260200190815260200160002054826110ff565b600760003373ffffffffffffffffffffffffffffffffffffffff1673ffffffffffffffffffffffffffffffffffffffff168152602001908152602001600020819055506107a3600954826110ff565b6009819055506107cd336107b683611113565b6fffffffffffffffffffffffffffffffff16611136565b505050565b60008060008373ffffffffffffffffffffffffffffffffffffffff1673ffffffffffffffffffffffffffffffffffffffff168152602001908152602001600020549050919050565b600080829050600061082d8633846111b8565b905061083a8686836111f5565b925050509392505050565b600060608060008060006060610859611382565b6108616113bd565b46306000801b600067ffffffffffffffff81111561088257610881612961565b5b6040519080825280602002602001820160405280156108b05781602001602082028036833780820191505090505b507f0f00000000000000000000000000000000000000000000000000000000000000959493929190965096509650965096509650965090919293949596565b6060600480546108fe9061304b565b80601f016020809104026020016040519081016040528092919081815260200182805461092a9061304b565b80156109775780601f1061094c57610100808354040283529160200191610977565b820191906000526020600020905b81548152906001019060200180831161095a57829003601f168201915b5050505050905090565b8063ffffffff16610991336107d2565b10156109c9576040517ffda7bbda00000000000000000000000000000000000000000000000000000000815260040160405180910390fd5b6109d9338263ffffffff166113f8565b60006109ea8263ffffffff16611057565b9050610a35600760003373ffffffffffffffffffffffffffffffffffffffff1673ffffffffffffffffffffffffffffffffffffffff168152602001908152602001600020548261147a565b600760003373ffffffffffffffffffffffffffffffffffffffff1673ffffffffffffffffffffffffffffffffffffffff16815260200190815260200160002081905550610a846009548261147a565b6009819055505050565b600080610a99610cd6565b9050610aa6818585610d84565b600191505092915050565b6000610abe3384846111f5565b905092915050565b6000610ae383610ade84610ad990613121565b610e78565b610ab1565b905092915050565b6000600160008473ffffffffffffffffffffffffffffffffffffffff1673ffffffffffffffffffffffffffffffffffffffff16815260200190815260200160002060008373ffffffffffffffffffffffffffffffffffffffff1673ffffffffffffffffffffffffffffffffffffffff16815260200190815260200160002054905092915050565b6000610b908484610b8b85610b8690613121565b610e78565b61081a565b90509392505050565b606081610ba59061315d565b84846000610bfe7f6bdaeb2d29561f159c7ef98b16b27015fb2aeb87209c7ee656226d912f59927d8560000151604051602001610be3929190613134565b60405160208183030381529060405280519060200120610ffd565b90506000610c10828660200151611017565b90508373ffffffffffffffffffffffffffffffffffffffff168173ffffffffffffffffffffffffffffffffffffffff1614158015610c7a57508273ffffffffffffffffffffffffffffffffffffffff168173ffffffffffffffffffffffffffffffffffffffff1614155b15610cb1576040517f51c65eae00000000000000000000000000000000000000000000000000000000815260040160405180910390fd5b610cc8610cbe8a8a61148e565b8860000135611515565b955050505050509392505050565b600033905090565b610ceb838383600161154b565b505050565b6000610cfc8484610aeb565b90507fffffffffffffffffffffffffffffffffffffffffffffffffffffffffffffffff8114610d7e5781811015610d6e578281836040517ffb8f41b2000000000000000000000000000000000000000000000000000000008152600401610d6593929190613170565b60405180910390fd5b610d7d8484848403600061154b565b5b50505050565b600073ffffffffffffffffffffffffffffffffffffffff168373ffffffffffffffffffffffffffffffffffffffff1603610df65760006040517f96c6fd1e000000000000000000000000000000000000000000000000000000008152600401610ded91906131a7565b60405180910390fd5b600073ffffffffffffffffffffffffffffffffffffffff168273ffffffffffffffffffffffffffffffffffffffff1603610e685760006040517fec442f05000000000000000000000000000000000000000000000000000000008152600401610e5f91906131a7565b60405180910390fd5b610e73838383611722565b505050565b6000610e8c82600001518360200151611947565b9050919050565b600073ffffffffffffffffffffffffffffffffffffffff168373ffffffffffffffffffffffffffffffffffffffff1603610f055760006040517fe602df05000000000000000000000000000000000000000000000000000000008152600401610efc91906131a7565b60405180910390fd5b600073ffffffffffffffffffffffffffffffffffffffff168273ffffffffffffffffffffffffffffffffffffffff1603610f775760006040517f94280d62000000000000000000000000000000000000000000000000000000008152600401610f6e91906131a7565b60405180910390fd5b80600860008573ffffffffffffffffffffffffffffffffffffffff1673ffffffffffffffffffffffffffffffffffffffff16815260200190815260200160002060008473ffffffffffffffffffffffffffffffffffffffff1673ffffffffffffffffffffffffffffffffffffffff16815260200190815260200160002081905550505050565b600061101061100a61195d565b83611a14565b9050919050565b6000806000806110278686611a55565b9250925092506110378282611ab1565b82935050505092915050565b606061104f8383611515565b905092915050565b60006110668260046000611c15565b9050919050565b60006110798383611cba565b905092915050565b600061108c84611d33565b61109d5761109a6000611d40565b93505b6110a683611d56565b6110b7576110b46000611057565b92505b6110c082611d56565b6110d1576110ce6000611057565b91505b60008490506000849050600084905060006110ef6004858585611d63565b9050809450505050509392505050565b600061110b8383611e1b565b905092915050565b600061112f826f80000000000000000000000000000000611e94565b9050919050565b600073ffffffffffffffffffffffffffffffffffffffff168273ffffffffffffffffffffffffffffffffffffffff16036111a85760006040517fec442f0500000000000000000000000000000000000000000000000000000000815260040161119f91906131a7565b60405180910390fd5b6111b460008383611722565b5050565b6000806111c5858561148e565b905060006111d38285611f72565b90506111e986866111e485856110ff565b610e93565b80925050509392505050565b60008061125d61124d600760008873ffffffffffffffffffffffffffffffffffffffff1673ffffffffffffffffffffffffffffffffffffffff1681526020019081526020016000205485611feb90919063ffffffff16565b846112586000611057565b611081565b90506112a8600760008673ffffffffffffffffffffffffffffffffffffffff1673ffffffffffffffffffffffffffffffffffffffff168152602001908152602001600020548261147a565b600760008673ffffffffffffffffffffffffffffffffffffffff1673ffffffffffffffffffffffffffffffffffffffff16815260200190815260200160002081905550611334600760008773ffffffffffffffffffffffffffffffffffffffff1673ffffffffffffffffffffffffffffffffffffffff16815260200190815260200160002054826110ff565b600760008773ffffffffffffffffffffffffffffffffffffffff1673ffffffffffffffffffffffffffffffffffffffff16815260200190815260200160002081905550809150509392505050565b60606113b860057f0000000000000000000000000000000000000000000000000000000000000000611fff90919063ffffffff16565b905090565b60606113f360067f0000000000000000000000000000000000000000000000000000000000000000611fff90919063ffffffff16565b905090565b600073ffffffffffffffffffffffffffffffffffffffff168273ffffffffffffffffffffffffffffffffffffffff160361146a5760006040517f96c6fd1e00000000000000000000000000000000000000000000000000000000815260040161146191906131a7565b60405180910390fd5b61147682600083611722565b5050565b600061148683836120af565b905092915050565b6000600860008473ffffffffffffffffffffffffffffffffffffffff1673ffffffffffffffffffffffffffffffffffffffff16815260200190815260200160002060008373ffffffffffffffffffffffffffffffffffffffff1673ffffffffffffffffffffffffffffffffffffffff16815260200190815260200160002054905092915050565b606061152083611d56565b6115315761152e6000611057565b92505b600083905061154260048285612127565b91505092915050565b600073ffffffffffffffffffffffffffffffffffffffff168473ffffffffffffffffffffffffffffffffffffffff16036115bd5760006040517fe602df050000000000000000000000000000000000000000000000000000000081526004016115b491906131a7565b60405180910390fd5b600073ffffffffffffffffffffffffffffffffffffffff168373ffffffffffffffffffffffffffffffffffffffff160361162f5760006040517f94280d6200000000000000000000000000000000000000000000000000000000815260040161162691906131a7565b60405180910390fd5b81600160008673ffffffffffffffffffffffffffffffffffffffff1673ffffffffffffffffffffffffffffffffffffffff16815260200190815260200160002060008573ffffffffffffffffffffffffffffffffffffffff1673ffffffffffffffffffffffffffffffffffffffff16815260200190815260200160002081905550801561171c578273ffffffffffffffffffffffffffffffffffffffff168473ffffffffffffffffffffffffffffffffffffffff167f8c5be1e5ebec7d5bd14f71427d1e84f3dd0314c0f7b2291e5b200ac8c7c3b925846040516117139190612837565b60405180910390a35b50505050565b600073ffffffffffffffffffffffffffffffffffffffff168373ffffffffffffffffffffffffffffffffffffffff160361177457806002600082825461176891906131f1565b92505081905550611847565b60008060008573ffffffffffffffffffffffffffffffffffffffff1673ffffffffffffffffffffffffffffffffffffffff16815260200190815260200160002054905081811015611800578381836040517fe450d38c0000000000000000000000000000000000000000000000000000000081526004016117f793929190613170565b60405180910390fd5b8181036000808673ffffffffffffffffffffffffffffffffffffffff1673ffffffffffffffffffffffffffffffffffffffff16815260200190815260200160002081905550505b600073ffffffffffffffffffffffffffffffffffffffff168273ffffffffffffffffffffffffffffffffffffffff160361189057806002600082825403925050819055506118dd565b806000808473ffffffffffffffffffffffffffffffffffffffff1673ffffffffffffffffffffffffffffffffffffffff168152602001908152602001600020600082825401925050819055505b8173ffffffffffffffffffffffffffffffffffffffff168373ffffffffffffffffffffffffffffffffffffffff167fddf252ad1be2c89b69c2b068fc378daa952ba7f163c4a11628f55a4df523b3ef8360405161193a9190612837565b60405180910390a3505050565b6000611955836004846121dd565b905092915050565b60007f000000000000000000000000000000000000000000000000000000000000000073ffffffffffffffffffffffffffffffffffffffff163073ffffffffffffffffffffffffffffffffffffffff161480156119d957507f000000000000000000000000000000000000000000000000000000000000000046145b15611a06577f00000000000000000000000000000000000000000000000000000000000000009050611a11565b611a0e61227a565b90505b90565b60006040517f190100000000000000000000000000000000000000000000000000000000000081528360028201528260228201526042812091505092915050565b60008060006041845103611a9a5760008060006020870151925060408701519150606087015160001a9050611a8c88828585612310565b955095509550505050611aaa565b60006002855160001b9250925092505b9250925092565b60006003811115611ac557611ac4613225565b5b826003811115611ad857611ad7613225565b5b0315611c115760016003811115611af257611af1613225565b5b826003811115611b0557611b04613225565b5b03611b3c576040517ff645eedf00000000000000000000000000000000000000000000000000000000815260040160405180910390fd5b60026003811115611b5057611b4f613225565b5b826003811115611b6357611b62613225565b5b03611ba8578060001c6040517ffce698f7000000000000000000000000000000000000000000000000000000008152600401611b9f9190612837565b60405180910390fd5b600380811115611bbb57611bba613225565b5b826003811115611bce57611bcd613225565b5b03611c1057806040517fd78bce0c000000000000000000000000000000000000000000000000000000008152600401611c079190613254565b60405180910390fd5b5b5050565b60006060608073ffffffffffffffffffffffffffffffffffffffff1663ba19ac28611c3f87612404565b86866040518463ffffffff1660e01b8152600401611c5f939291906132d3565b600060405180830381865afa158015611c7c573d6000803e3d6000fd5b505050506040513d6000823e3d601f19601f82011682018060405250810190611ca59190613381565b9050611cb081612461565b9150509392505050565b6000611cc583611d56565b611cd657611cd36000611057565b92505b611cdf82611d56565b611cf057611ced6000611057565b91505b600083905060008390506000611d2560048484608073ffffffffffffffffffffffffffffffffffffffff1663650de1cf61246f565b905080935050505092915050565b6000808214159050919050565b6000611d4f82600d6000611c15565b9050919050565b6000808214159050919050565b60006060608073ffffffffffffffffffffffffffffffffffffffff1663c2d9695287611d8e88612404565b611d9788612404565b611da088612404565b6040518563ffffffff1660e01b8152600401611dbf94939291906133ca565b600060405180830381865afa158015611ddc573d6000803e3d6000fd5b505050506040513d6000823e3d601f19601f82011682018060405250810190611e059190613381565b9050611e1081612461565b915050949350505050565b6000611e2683611d56565b611e3757611e346000611057565b92505b611e4082611d56565b611e5157611e4e6000611057565b91505b600083905060008390506000611e8660048484608073ffffffffffffffffffffffffffffffffffffffff1663cc2cbeff61246f565b905080935050505092915050565b6000611e9f83611d56565b611eb057611ead6000611057565b92505b6000826fffffffffffffffffffffffffffffffff16905060008490506000611ed782612404565b90506000608073ffffffffffffffffffffffffffffffffffffffff16637c4697ab600484876040518463ffffffff1660e01b8152600401611f1a93929190613424565b602060405180830381865afa158015611f37573d6000803e3d6000fd5b505050506040513d601f19601f82011682018060405250810190611f5b9190613477565b9050611f6681612503565b94505050505092915050565b6000611f7d83611d56565b611f8e57611f8b6000611057565b92505b611f9782611d56565b611fa857611fa56000611057565b91505b600083905060008390506000611fdd60048484608073ffffffffffffffffffffffffffffffffffffffff16635211c67961246f565b905080935050505092915050565b6000611ff7838361250d565b905092915050565b606060ff60001b831461201c5761201583612586565b90506120a9565b8180546120289061304b565b80601f01602080910402602001604051908101604052809291908181526020018280546120549061304b565b80156120a15780601f10612076576101008083540402835291602001916120a1565b820191906000526020600020905b81548152906001019060200180831161208457829003601f168201915b505050505090505b92915050565b60006120ba83611d56565b6120cb576120c86000611057565b92505b6120d482611d56565b6120e5576120e26000611057565b91505b60008390506000839050600061211960048484608073ffffffffffffffffffffffffffffffffffffffff16622df61961246f565b905080935050505092915050565b6060608073ffffffffffffffffffffffffffffffffffffffff1663a1848ff38561215086612404565b8560405160200161216191906134c5565b6040516020818303038152906040526040518463ffffffff1660e01b815260040161218e939291906134e0565b600060405180830381865afa1580156121ab573d6000803e3d6000fd5b505050506040513d6000823e3d601f19601f820116820180604052508101906121d491906135c6565b90509392505050565b60006060608073ffffffffffffffffffffffffffffffffffffffff166321b50ba38587866040518463ffffffff1660e01b815260040161221f9392919061360f565b600060405180830381865afa15801561223c573d6000803e3d6000fd5b505050506040513d6000823e3d601f19601f820116820180604052508101906122659190613381565b905061227081612461565b9150509392505050565b60007f8b73c3c69bb8fe3d512ecc4cf759cc79239f7b179b0ffacaa9a75d522b39400f7f00000000000000000000000000000000000000000000000000000000000000007f000000000000000000000000000000000000000000000000000000000000000046306040516020016122f595949392919061364d565b60405160208183030381529060405280519060200120905090565b60008060007f7fffffffffffffffffffffffffffffff5d576e7357a4501ddfe92f46681b20a08460001c11156123505760006003859250925092506123fa565b60006001888888886040516000815260200160405260405161237594939291906136a0565b6020604051602081039080840390855afa158015612397573d6000803e3d6000fd5b505050602060405103519050600073ffffffffffffffffffffffffffffffffffffffff168173ffffffffffffffffffffffffffffffffffffffff16036123eb57600060016000801b935093509350506123fa565b8060008060001b935093509350505b9450945094915050565b6060602067ffffffffffffffff81111561242157612420612961565b5b6040519080825280601f01601f1916602001820160405280156124535781602001600182028036833780820191505090505b509050816020820152919050565b600060208201519050919050565b6000606083838861247f89612404565b61248889612404565b6040518463ffffffff1660e01b81526004016124a6939291906134e0565b600060405180830381865afa1580156124c3573d6000803e3d6000fd5b505050506040513d6000823e3d601f19601f820116820180604052508101906124ec9190613381565b90506124f7816125fa565b91505095945050505050565b6000819050919050565b600061251883611d56565b612529576125266000611057565b92505b61253282611d56565b612543576125406000611057565b91505b60008390506000839050600061257860048484608073ffffffffffffffffffffffffffffffffffffffff1663eb274b7761246f565b905080935050505092915050565b6060600061259383612608565b90506000602067ffffffffffffffff8111156125b2576125b1612961565b5b6040519080825280601f01601f1916602001820160405280156125e45781602001600182028036833780820191505090505b5090508181528360208201528092505050919050565b600060208201519050919050565b60008060ff8360001c169050601f81111561264f576040517fb3512b0c00000000000000000000000000000000000000000000000000000000815260040160405180910390fd5b80915050919050565b600081519050919050565b600082825260208201905092915050565b60005b83811015612692578082015181840152602081019050612677565b60008484015250505050565b6000601f19601f8301169050919050565b60006126ba82612658565b6126c48185612663565b93506126d4818560208601612674565b6126dd8161269e565b840191505092915050565b6000602082019050818103600083015261270281846126af565b905092915050565b6000604051905090565b600080fd5b600080fd5b600073ffffffffffffffffffffffffffffffffffffffff82169050919050565b60006127498261271e565b9050919050565b6127598161273e565b811461276457600080fd5b50565b60008135905061277681612750565b92915050565b6000819050919050565b61278f8161277c565b811461279a57600080fd5b50565b6000813590506127ac81612786565b92915050565b600080604083850312156127c9576127c8612714565b5b60006127d785828601612767565b92505060206127e88582860161279d565b9150509250929050565b60008115159050919050565b612807816127f2565b82525050565b600060208201905061282260008301846127fe565b92915050565b6128318161277c565b82525050565b600060208201905061284c6000830184612828565b92915050565b60008060006060848603121561286b5761286a612714565b5b600061287986828701612767565b935050602061288a86828701612767565b925050604061289b8682870161279d565b9150509250925092565b600060ff82169050919050565b6128bb816128a5565b82525050565b60006020820190506128d660008301846128b2565b92915050565b600080fd5b6000604082840312156128f7576128f66128dc565b5b81905092915050565b6000806040838503121561291757612916612714565b5b600061292585828601612767565b925050602083013567ffffffffffffffff81111561294657612945612719565b5b612952858286016128e1565b9150509250929050565b600080fd5b7f4e487b7100000000000000000000000000000000000000000000000000000000600052604160045260246000fd5b6129998261269e565b810181811067ffffffffffffffff821117156129b8576129b7612961565b5b80604052505050565b60006129cb61270a565b90506129d78282612990565b919050565b600080fd5b6000819050919050565b6129f4816129e1565b81146129ff57600080fd5b50565b600081359050612a11816129eb565b92915050565b600080fd5b600080fd5b600067ffffffffffffffff821115612a3c57612a3b612961565b5b612a458261269e565b9050602081019050919050565b82818337600083830152505050565b6000612a74612a6f84612a21565b6129c1565b905082815260208101848484011115612a9057612a8f612a1c565b5b612a9b848285612a52565b509392505050565b600082601f830112612ab857612ab7612a17565b5b8135612ac8848260208601612a61565b91505092915050565b600060408284031215612ae757612ae661295c565b5b612af160406129c1565b90506000612b0184828501612a02565b600083015250602082013567ffffffffffffffff811115612b2557612b246129dc565b5b612b3184828501612aa3565b60208301525092915050565b60008060408385031215612b5457612b53612714565b5b6000612b6285828601612767565b925050602083013567ffffffffffffffff811115612b8357612b82612719565b5b612b8f85828601612ad1565b9150509250929050565b600063ffffffff82169050919050565b612bb281612b99565b8114612bbd57600080fd5b50565b600081359050612bcf81612ba9565b92915050565b600060208284031215612beb57612bea612714565b5b6000612bf984828501612bc0565b91505092915050565b600060208284031215612c1857612c17612714565b5b6000612c2684828501612767565b91505092915050565b612c388161277c565b8114612c4357600080fd5b50565b600081359050612c5581612c2f565b92915050565b600080600060608486031215612c7457612c73612714565b5b6000612c8286828701612767565b9350506020612c9386828701612767565b9250506040612ca486828701612c46565b9150509250925092565b6000819050919050565b6000612cd3612cce612cc98461277c565b612cae565b61277c565b9050919050565b612ce381612cb8565b82525050565b6000602082019050612cfe6000830184612cda565b92915050565b60007fff0000000000000000000000000000000000000000000000000000000000000082169050919050565b612d3981612d04565b82525050565b612d488161273e565b82525050565b612d57816129e1565b82525050565b600081519050919050565b600082825260208201905092915050565b6000819050602082019050919050565b612d928161277c565b82525050565b6000612da48383612d89565b60208301905092915050565b6000602082019050919050565b6000612dc882612d5d565b612dd28185612d68565b9350612ddd83612d79565b8060005b83811015612e0e578151612df58882612d98565b9750612e0083612db0565b925050600181019050612de1565b5085935050505092915050565b600060e082019050612e30600083018a612d30565b8181036020830152612e4281896126af565b90508181036040830152612e5681886126af565b9050612e656060830187612828565b612e726080830186612d3f565b612e7f60a0830185612d4e565b81810360c0830152612e918184612dbd565b905098975050505050505050565b60008060408385031215612eb657612eb5612714565b5b6000612ec485828601612767565b9250506020612ed585828601612c46565b9150509250929050565b60008060408385031215612ef657612ef5612714565b5b6000612f0485828601612767565b9250506020612f1585828601612767565b9150509250929050565b600080600060608486031215612f3857612f37612714565b5b6000612f4686828701612767565b9350506020612f5786828701612767565b925050604084013567ffffffffffffffff811115612f7857612f77612719565b5b612f84868287016128e1565b9150509250925092565b600060408284031215612fa457612fa36128dc565b5b81905092915050565b600080600060608486031215612fc657612fc5612714565b5b6000612fd486828701612767565b9350506020612fe586828701612767565b925050604084013567ffffffffffffffff81111561300657613005612719565b5b61301286828701612f8e565b9150509250925092565b7f4e487b7100000000000000000000000000000000000000000000000000000000600052602260045260246000fd5b6000600282049050600182168061306357607f821691505b6020821081036130765761307561301c565b5b50919050565b60008160030b9050919050565b6130928161307c565b811461309d57600080fd5b50565b6000813590506130af81613089565b92915050565b6000604082840312156130cb576130ca61295c565b5b6130d560406129c1565b9050600082013567ffffffffffffffff8111156130f5576130f46129dc565b5b61310184828501612aa3565b6000830152506020613115848285016130a0565b60208301525092915050565b600061312d36836130b5565b9050919050565b60006040820190506131496000830185612d4e565b6131566020830184612d4e565b9392505050565b60006131693683612ad1565b9050919050565b60006060820190506131856000830186612d3f565b6131926020830185612828565b61319f6040830184612828565b949350505050565b60006020820190506131bc6000830184612d3f565b92915050565b7f4e487b7100000000000000000000000000000000000000000000000000000000600052601160045260246000fd5b60006131fc8261277c565b91506132078361277c565b925082820190508082111561321f5761321e6131c2565b5b92915050565b7f4e487b7100000000000000000000000000000000000000000000000000000000600052602160045260246000fd5b60006020820190506132696000830184612d4e565b92915050565b600081519050919050565b600082825260208201905092915050565b60006132968261326f565b6132a0818561327a565b93506132b0818560208601612674565b6132b98161269e565b840191505092915050565b6132cd8161307c565b82525050565b600060608201905081810360008301526132ed818661328b565b90506132fc60208301856128b2565b61330960408301846132c4565b949350505050565b600061332461331f84612a21565b6129c1565b9050828152602081018484840111156133405761333f612a1c565b5b61334b848285612674565b509392505050565b600082601f83011261336857613367612a17565b5b8151613378848260208601613311565b91505092915050565b60006020828403121561339757613396612714565b5b600082015167ffffffffffffffff8111156133b5576133b4612719565b5b6133c184828501613353565b91505092915050565b60006080820190506133df60008301876128b2565b81810360208301526133f1818661328b565b90508181036040830152613405818561328b565b90508181036060830152613419818461328b565b905095945050505050565b600060608201905061343960008301866128b2565b818103602083015261344b818561328b565b905061345a6040830184612828565b949350505050565b60008151905061347181612786565b92915050565b60006020828403121561348d5761348c612714565b5b600061349b84828501613462565b91505092915050565b6000819050919050565b6134bf6134ba826129e1565b6134a4565b82525050565b60006134d182846134ae565b60208201915081905092915050565b60006060820190506134f560008301866128b2565b8181036020830152613507818561328b565b9050818103604083015261351b818461328b565b9050949350505050565b600067ffffffffffffffff8211156135405761353f612961565b5b6135498261269e565b9050602081019050919050565b600061356961356484613525565b6129c1565b90508281526020810184848401111561358557613584612a1c565b5b613590848285612674565b509392505050565b600082601f8301126135ad576135ac612a17565b5b81516135bd848260208601613556565b91505092915050565b6000602082840312156135dc576135db612714565b5b600082015167ffffffffffffffff8111156135fa576135f9612719565b5b61360684828501613598565b91505092915050565b600060608201905061362460008301866128b2565b8181036020830152613636818561328b565b905061364560408301846132c4565b949350505050565b600060a0820190506136626000830188612d4e565b61366f6020830187612d4e565b61367c6040830186612d4e565b6136896060830185612828565b6136966080830184612d3f565b9695505050505050565b60006080820190506136b56000830187612d4e565b6136c260208301866128b2565b6136cf6040830185612d4e565b6136dc6060830184612d4e565b9594505050505056fea264697066735822122096386cfe1b79d8ff43ca47739e1fb07bd3b4388ed8f3b3505b7a05afa2a1313264736f6c63430008140033",
  "linkReferences": {},
  "deployedLinkReferences": {}
}