{
  "address": "0x22517a79A502544d6FeD3a882B755be6A3C79606",
  "abi": [
    {
      "inputs": [
        {
          "internalType": "string",
          "name": "name",
          "type": "string"
        },
        {
          "internalType": "string",
          "name": "symbol",
          "type": "string"
        }
      ],
      "stateMutability": "nonpayable",
      "type": "constructor"
    },
    {
      "inputs": [],
      "name": "ECDSAInvalidSignature",
      "type": "error"
    },
    {
      "inputs": [
        {
          "internalType": "uint256",
          "name": "length",
          "type": "uint256"
        }
      ],
      "name": "ECDSAInvalidSignatureLength",
      "type": "error"
    },
    {
      "inputs": [
        {
          "internalType": "bytes32",
          "name": "s",
          "type": "bytes32"
        }
      ],
      "name": "ECDSAInvalidSignatureS",
      "type": "error"
    },
    {
      "inputs": [
        {
          "internalType": "address",
          "name": "spender",
          "type": "address"
        },
        {
          "internalType": "uint256",
          "name": "allowance",
          "type": "uint256"
        },
        {
          "internalType": "uint256",
          "name": "needed",
          "type": "uint256"
        }
      ],
      "name": "ERC20InsufficientAllowance",
      "type": "error"
    },
    {
      "inputs": [
        {
          "internalType": "address",
          "name": "sender",
          "type": "address"
        },
        {
          "internalType": "uint256",
          "name": "balance",
          "type": "uint256"
        },
        {
          "internalType": "uint256",
          "name": "needed",
          "type": "uint256"
        }
      ],
      "name": "ERC20InsufficientBalance",
      "type": "error"
    },
    {
      "inputs": [
        {
          "internalType": "address",
          "name": "approver",
          "type": "address"
        }
      ],
      "name": "ERC20InvalidApprover",
      "type": "error"
    },
    {
      "inputs": [
        {
          "internalType": "address",
          "name": "receiver",
          "type": "address"
        }
      ],
      "name": "ERC20InvalidReceiver",
      "type": "error"
    },
    {
      "inputs": [
        {
          "internalType": "address",
          "name": "sender",
          "type": "address"
        }
      ],
      "name": "ERC20InvalidSender",
      "type": "error"
    },
    {
      "inputs": [
        {
          "internalType": "address",
          "name": "spender",
          "type": "address"
        }
      ],
      "name": "ERC20InvalidSpender",
      "type": "error"
    },
    {
      "inputs": [],
      "name": "InvalidShortString",
      "type": "error"
    },
    {
      "inputs": [],
      "name": "SignerNotMessageSender",
      "type": "error"
    },
    {
      "inputs": [],
      "name": "SignerNotOwner",
      "type": "error"
    },
    {
      "inputs": [
        {
          "internalType": "string",
          "name": "str",
          "type": "string"
        }
      ],
      "name": "StringTooLong",
      "type": "error"
    },
    {
      "anonymous": false,
      "inputs": [
        {
          "indexed": true,
          "internalType": "address",
          "name": "owner",
          "type": "address"
        },
        {
          "indexed": true,
          "internalType": "address",
          "name": "spender",
          "type": "address"
        },
        {
          "indexed": false,
          "internalType": "uint256",
          "name": "value",
          "type": "uint256"
        }
      ],
      "name": "Approval",
      "type": "event"
    },
    {
      "anonymous": false,
      "inputs": [],
      "name": "EIP712DomainChanged",
      "type": "event"
    },
    {
      "anonymous": false,
      "inputs": [
        {
          "indexed": true,
          "internalType": "address",
          "name": "from",
          "type": "address"
        },
        {
          "indexed": true,
          "internalType": "address",
          "name": "to",
          "type": "address"
        },
        {
          "indexed": false,
          "internalType": "uint256",
          "name": "value",
          "type": "uint256"
        }
      ],
      "name": "Transfer",
      "type": "event"
    },
    {
      "inputs": [
        {
          "internalType": "address",
          "name": "owner",
          "type": "address"
        },
        {
          "internalType": "address",
          "name": "spender",
          "type": "address"
        }
      ],
      "name": "allowance",
      "outputs": [
        {
          "internalType": "uint256",
          "name": "",
          "type": "uint256"
        }
      ],
      "stateMutability": "view",
      "type": "function"
    },
    {
      "inputs": [
        {
          "internalType": "address",
          "name": "spender",
          "type": "address"
        },
        {
          "internalType": "uint256",
          "name": "value",
          "type": "uint256"
        }
      ],
      "name": "approve",
      "outputs": [
        {
          "internalType": "bool",
          "name": "",
          "type": "bool"
        }
      ],
      "stateMutability": "nonpayable",
      "type": "function"
    },
    {
      "inputs": [
        {
          "internalType": "address",
          "name": "account",
          "type": "address"
        }
      ],
      "name": "balanceOf",
      "outputs": [
        {
          "internalType": "uint256",
          "name": "",
          "type": "uint256"
        }
      ],
      "stateMutability": "view",
      "type": "function"
    },
    {
      "inputs": [],
      "name": "decimals",
      "outputs": [
        {
          "internalType": "uint8",
          "name": "",
          "type": "uint8"
        }
      ],
      "stateMutability": "view",
      "type": "function"
    },
    {
      "inputs": [],
      "name": "eip712Domain",
      "outputs": [
        {
          "internalType": "bytes1",
          "name": "fields",
          "type": "bytes1"
        },
        {
          "internalType": "string",
          "name": "name",
          "type": "string"
        },
        {
          "internalType": "string",
          "name": "version",
          "type": "string"
        },
        {
          "internalType": "uint256",
          "name": "chainId",
          "type": "uint256"
        },
        {
          "internalType": "address",
          "name": "verifyingContract",
          "type": "address"
        },
        {
          "internalType": "bytes32",
          "name": "salt",
          "type": "bytes32"
        },
        {
          "internalType": "uint256[]",
          "name": "extensions",
          "type": "uint256[]"
        }
      ],
      "stateMutability": "view",
      "type": "function"
    },
    {
      "inputs": [
        {
          "components": [
            {
              "internalType": "bytes32",
              "name": "publicKey",
              "type": "bytes32"
            },
            {
              "internalType": "bytes",
              "name": "signature",
              "type": "bytes"
            }
          ],
          "internalType": "struct Permission",
          "name": "perm",
          "type": "tuple"
        }
      ],
      "name": "getBalanceEncrypted",
      "outputs": [
        {
          "internalType": "uint256",
          "name": "",
          "type": "uint256"
        }
      ],
      "stateMutability": "view",
      "type": "function"
    },
    {
      "inputs": [],
      "name": "name",
      "outputs": [
        {
          "internalType": "string",
          "name": "",
          "type": "string"
        }
      ],
      "stateMutability": "view",
      "type": "function"
    },
    {
      "inputs": [],
      "name": "symbol",
      "outputs": [
        {
          "internalType": "string",
          "name": "",
          "type": "string"
        }
      ],
      "stateMutability": "view",
      "type": "function"
    },
    {
      "inputs": [],
      "name": "totalSupply",
      "outputs": [
        {
          "internalType": "uint256",
          "name": "",
          "type": "uint256"
        }
      ],
      "stateMutability": "view",
      "type": "function"
    },
    {
      "inputs": [
        {
          "internalType": "address",
          "name": "to",
          "type": "address"
        },
        {
          "internalType": "uint256",
          "name": "value",
          "type": "uint256"
        }
      ],
      "name": "transfer",
      "outputs": [
        {
          "internalType": "bool",
          "name": "",
          "type": "bool"
        }
      ],
      "stateMutability": "nonpayable",
      "type": "function"
    },
    {
      "inputs": [
        {
          "internalType": "address",
          "name": "to",
          "type": "address"
        },
        {
          "components": [
            {
              "internalType": "bytes",
              "name": "data",
              "type": "bytes"
            }
          ],
          "internalType": "struct inEuint32",
          "name": "encryptedAmount",
          "type": "tuple"
        }
      ],
      "name": "transferEncrypted",
      "outputs": [],
      "stateMutability": "nonpayable",
      "type": "function"
    },
    {
      "inputs": [
        {
          "internalType": "address",
          "name": "from",
          "type": "address"
        },
        {
          "internalType": "address",
          "name": "to",
          "type": "address"
        },
        {
          "internalType": "uint256",
          "name": "value",
          "type": "uint256"
        }
      ],
      "name": "transferFrom",
      "outputs": [
        {
          "internalType": "bool",
          "name": "",
          "type": "bool"
        }
      ],
      "stateMutability": "nonpayable",
      "type": "function"
    },
    {
      "inputs": [
        {
          "components": [
            {
              "internalType": "bytes",
              "name": "data",
              "type": "bytes"
            }
          ],
          "internalType": "struct inEuint32",
          "name": "amount",
          "type": "tuple"
        }
      ],
      "name": "unwrap",
      "outputs": [],
      "stateMutability": "nonpayable",
      "type": "function"
    },
    {
      "inputs": [
        {
          "internalType": "uint32",
          "name": "amount",
          "type": "uint32"
        }
      ],
      "name": "wrap",
      "outputs": [],
      "stateMutability": "nonpayable",
      "type": "function"
    }
  ],
  "transactionHash": "0x0b27d77b3f248f45367856283e4d20612961e6163ecf45483a8c9444c63a0c19",
  "args": [
    "Test Token",
    "TST"
  ],
  "numDeployments": 1,
  "solcInputHash": "044a9ed2a2ae39b16fea2b44f50e2cd9",
  "bytecode": "0x6101606040523480156200001257600080fd5b5060405162003b2238038062003b22833981810160405281019062000038919062000749565b6040518060400160405280601181526020017f4668656e6978205065726d697373696f6e0000000000000000000000000000008152506040518060400160405280600381526020017f312e30000000000000000000000000000000000000000000000000000000000081525083838160039081620000b7919062000a19565b508060049081620000c9919062000a19565b505050620000e2600583620001c460201b90919060201c565b610120818152505062000100600682620001c460201b90919060201c565b6101408181525050818051906020012060e08181525050808051906020012061010081815250504660a081815250506200013f6200021c60201b60201c565b608081815250503073ffffffffffffffffffffffffffffffffffffffff1660c08173ffffffffffffffffffffffffffffffffffffffff16815250505050620001bc33620001916200027960201b60201c565b60ff16600a620001a2919062000c83565b6064620001b0919062000cd4565b6200028260201b60201c565b505062000fb7565b6000602083511015620001ea57620001e2836200030f60201b60201c565b905062000216565b82620001fc836200037c60201b60201c565b60000190816200020d919062000a19565b5060ff60001b90505b92915050565b60007f8b73c3c69bb8fe3d512ecc4cf759cc79239f7b179b0ffacaa9a75d522b39400f60e0516101005146306040516020016200025e95949392919062000d90565b60405160208183030381529060405280519060200120905090565b60006012905090565b600073ffffffffffffffffffffffffffffffffffffffff168273ffffffffffffffffffffffffffffffffffffffff1603620002f75760006040517fec442f05000000000000000000000000000000000000000000000000000000008152600401620002ee919062000ded565b60405180910390fd5b6200030b600083836200038660201b60201c565b5050565b600080829050601f815111156200035f57826040517f305a27a900000000000000000000000000000000000000000000000000000000815260040162000356919062000e5c565b60405180910390fd5b8051816200036d9062000eb2565b60001c1760001b915050919050565b6000819050919050565b600073ffffffffffffffffffffffffffffffffffffffff168373ffffffffffffffffffffffffffffffffffffffff1603620003dc578060026000828254620003cf919062000f22565b92505081905550620004b2565b60008060008573ffffffffffffffffffffffffffffffffffffffff1673ffffffffffffffffffffffffffffffffffffffff168152602001908152602001600020549050818110156200046b578381836040517fe450d38c000000000000000000000000000000000000000000000000000000008152600401620004629392919062000f5d565b60405180910390fd5b8181036000808673ffffffffffffffffffffffffffffffffffffffff1673ffffffffffffffffffffffffffffffffffffffff16815260200190815260200160002081905550505b600073ffffffffffffffffffffffffffffffffffffffff168273ffffffffffffffffffffffffffffffffffffffff1603620004fd57806002600082825403925050819055506200054a565b806000808473ffffffffffffffffffffffffffffffffffffffff1673ffffffffffffffffffffffffffffffffffffffff168152602001908152602001600020600082825401925050819055505b8173ffffffffffffffffffffffffffffffffffffffff168373ffffffffffffffffffffffffffffffffffffffff167fddf252ad1be2c89b69c2b068fc378daa952ba7f163c4a11628f55a4df523b3ef83604051620005a9919062000f9a565b60405180910390a3505050565b6000604051905090565b600080fd5b600080fd5b600080fd5b600080fd5b6000601f19601f8301169050919050565b7f4e487b7100000000000000000000000000000000000000000000000000000000600052604160045260246000fd5b6200061f82620005d4565b810181811067ffffffffffffffff82111715620006415762000640620005e5565b5b80604052505050565b600062000656620005b6565b905062000664828262000614565b919050565b600067ffffffffffffffff821115620006875762000686620005e5565b5b6200069282620005d4565b9050602081019050919050565b60005b83811015620006bf578082015181840152602081019050620006a2565b60008484015250505050565b6000620006e2620006dc8462000669565b6200064a565b905082815260208101848484011115620007015762000700620005cf565b5b6200070e8482856200069f565b509392505050565b600082601f8301126200072e576200072d620005ca565b5b815162000740848260208601620006cb565b91505092915050565b60008060408385031215620007635762000762620005c0565b5b600083015167ffffffffffffffff811115620007845762000783620005c5565b5b620007928582860162000716565b925050602083015167ffffffffffffffff811115620007b657620007b5620005c5565b5b620007c48582860162000716565b9150509250929050565b600081519050919050565b7f4e487b7100000000000000000000000000000000000000000000000000000000600052602260045260246000fd5b600060028204905060018216806200082157607f821691505b602082108103620008375762000836620007d9565b5b50919050565b60008190508160005260206000209050919050565b60006020601f8301049050919050565b600082821b905092915050565b600060088302620008a17fffffffffffffffffffffffffffffffffffffffffffffffffffffffffffffffff8262000862565b620008ad868362000862565b95508019841693508086168417925050509392505050565b6000819050919050565b6000819050919050565b6000620008fa620008f4620008ee84620008c5565b620008cf565b620008c5565b9050919050565b6000819050919050565b6200091683620008d9565b6200092e620009258262000901565b8484546200086f565b825550505050565b600090565b6200094562000936565b620009528184846200090b565b505050565b5b818110156200097a576200096e6000826200093b565b60018101905062000958565b5050565b601f821115620009c95762000993816200083d565b6200099e8462000852565b81016020851015620009ae578190505b620009c6620009bd8562000852565b83018262000957565b50505b505050565b600082821c905092915050565b6000620009ee60001984600802620009ce565b1980831691505092915050565b600062000a098383620009db565b9150826002028217905092915050565b62000a2482620007ce565b67ffffffffffffffff81111562000a405762000a3f620005e5565b5b62000a4c825462000808565b62000a598282856200097e565b600060209050601f83116001811462000a91576000841562000a7c578287015190505b62000a888582620009fb565b86555062000af8565b601f19841662000aa1866200083d565b60005b8281101562000acb5784890151825560018201915060208501945060208101905062000aa4565b8683101562000aeb578489015162000ae7601f891682620009db565b8355505b6001600288020188555050505b505050505050565b7f4e487b7100000000000000000000000000000000000000000000000000000000600052601160045260246000fd5b60008160011c9050919050565b6000808291508390505b600185111562000b8e5780860481111562000b665762000b6562000b00565b5b600185161562000b765780820291505b808102905062000b868562000b2f565b945062000b46565b94509492505050565b60008262000ba9576001905062000c7c565b8162000bb9576000905062000c7c565b816001811462000bd2576002811462000bdd5762000c13565b600191505062000c7c565b60ff84111562000bf25762000bf162000b00565b5b8360020a91508482111562000c0c5762000c0b62000b00565b5b5062000c7c565b5060208310610133831016604e8410600b841016171562000c4d5782820a90508381111562000c475762000c4662000b00565b5b62000c7c565b62000c5c848484600162000b3c565b9250905081840481111562000c765762000c7562000b00565b5b81810290505b9392505050565b600062000c9082620008c5565b915062000c9d83620008c5565b925062000ccc7fffffffffffffffffffffffffffffffffffffffffffffffffffffffffffffffff848462000b97565b905092915050565b600062000ce182620008c5565b915062000cee83620008c5565b925082820262000cfe81620008c5565b9150828204841483151762000d185762000d1762000b00565b5b5092915050565b6000819050919050565b62000d348162000d1f565b82525050565b62000d4581620008c5565b82525050565b600073ffffffffffffffffffffffffffffffffffffffff82169050919050565b600062000d788262000d4b565b9050919050565b62000d8a8162000d6b565b82525050565b600060a08201905062000da7600083018862000d29565b62000db6602083018762000d29565b62000dc5604083018662000d29565b62000dd4606083018562000d3a565b62000de3608083018462000d7f565b9695505050505050565b600060208201905062000e04600083018462000d7f565b92915050565b600082825260208201905092915050565b600062000e2882620007ce565b62000e34818562000e0a565b935062000e468185602086016200069f565b62000e5181620005d4565b840191505092915050565b6000602082019050818103600083015262000e78818462000e1b565b905092915050565b600081519050919050565b6000819050602082019050919050565b600062000ea9825162000d1f565b80915050919050565b600062000ebf8262000e80565b8262000ecb8462000e8b565b905062000ed88162000e9b565b9250602082101562000f1b5762000f167fffffffffffffffffffffffffffffffffffffffffffffffffffffffffffffffff8360200360080262000862565b831692505b5050919050565b600062000f2f82620008c5565b915062000f3c83620008c5565b925082820190508082111562000f575762000f5662000b00565b5b92915050565b600060608201905062000f74600083018662000d7f565b62000f83602083018562000d3a565b62000f92604083018462000d3a565b949350505050565b600060208201905062000fb1600083018462000d3a565b92915050565b60805160a05160c05160e051610100516101205161014051612b10620010126000396000610daf01526000610d7401526000611c9001526000611c6f015260006116c201526000611718015260006117410152612b106000f3fe608060405234801561001057600080fd5b50600436106100ea5760003560e01c806384b0196e1161008c57806397b02c8e1161006657806397b02c8e146102675780639f284be714610283578063a9059cbb1461029f578063dd62ed3e146102cf576100ea565b806384b0196e146101f55780638f88b1cb1461021957806395d89b4114610249576100ea565b806323b872dd116100c857806323b872dd1461015b578063313ce5671461018b57806339c217f7146101a957806370a08231146101c5576100ea565b806306fdde03146100ef578063095ea7b31461010d57806318160ddd1461013d575b600080fd5b6100f76102ff565b6040516101049190611ed0565b60405180910390f35b61012760048036038101906101229190611f9a565b610391565b6040516101349190611ff5565b60405180910390f35b6101456103b4565b604051610152919061201f565b60405180910390f35b6101756004803603810190610170919061203a565b6103be565b6040516101829190611ff5565b60405180910390f35b6101936103ed565b6040516101a091906120a9565b60405180910390f35b6101c360048036038101906101be91906120e8565b6103f6565b005b6101df60048036038101906101da9190612144565b610583565b6040516101ec919061201f565b60405180910390f35b6101fd6105cb565b6040516102109796959493929190612292565b60405180910390f35b610233600480360381019061022e9190612335565b610675565b604051610240919061201f565b60405180910390f35b6102516107a9565b60405161025e9190611ed0565b60405180910390f35b610281600480360381019061027c9190612515565b61083b565b005b61029d6004803603810190610298919061259a565b61094a565b005b6102b960048036038101906102b49190611f9a565b610a18565b6040516102c69190611ff5565b60405180910390f35b6102e960048036038101906102e491906125c7565b610a3b565b6040516102f6919061201f565b60405180910390f35b60606003805461030e90612636565b80601f016020809104026020016040519081016040528092919081815260200182805461033a90612636565b80156103875780601f1061035c57610100808354040283529160200191610387565b820191906000526020600020905b81548152906001019060200180831161036a57829003601f168201915b5050505050905090565b60008061039c610ac2565b90506103a9818585610aca565b600191505092915050565b6000600254905090565b6000806103c9610ac2565b90506103d6858285610adc565b6103e1858585610b70565b60019150509392505050565b60006012905090565b600061040a8261040590612667565b610c64565b9050610466610461600760003373ffffffffffffffffffffffffffffffffffffffff1673ffffffffffffffffffffffffffffffffffffffff1681526020019081526020016000205483610c7a90919063ffffffff16565b610c8e565b6104af600760008573ffffffffffffffffffffffffffffffffffffffff1673ffffffffffffffffffffffffffffffffffffffff1681526020019081526020016000205482610d43565b600760008573ffffffffffffffffffffffffffffffffffffffff1673ffffffffffffffffffffffffffffffffffffffff1681526020019081526020016000208190555061053b600760003373ffffffffffffffffffffffffffffffffffffffff1673ffffffffffffffffffffffffffffffffffffffff1681526020019081526020016000205482610d57565b600760003373ffffffffffffffffffffffffffffffffffffffff1673ffffffffffffffffffffffffffffffffffffffff16815260200190815260200160002081905550505050565b60008060008373ffffffffffffffffffffffffffffffffffffffff1673ffffffffffffffffffffffffffffffffffffffff168152602001908152602001600020549050919050565b6000606080600080600060606105df610d6b565b6105e7610da6565b46306000801b600067ffffffffffffffff81111561060857610607612383565b5b6040519080825280602002602001820160405280156106365781602001602082028036833780820191505090505b507f0f00000000000000000000000000000000000000000000000000000000000000959493929190965096509650965096509650965090919293949596565b60008161068190612712565b60006106d87f6bdaeb2d29561f159c7ef98b16b27015fb2aeb87209c7ee656226d912f59927d83600001516040516020016106bd929190612725565b60405160208183030381529060405280519060200120610de1565b905060006106ea828460200151610dfb565b90503373ffffffffffffffffffffffffffffffffffffffff168173ffffffffffffffffffffffffffffffffffffffff1614610751576040517f3093a27700000000000000000000000000000000000000000000000000000000815260040160405180910390fd5b610799600760003373ffffffffffffffffffffffffffffffffffffffff1673ffffffffffffffffffffffffffffffffffffffff16815260200190815260200160002054610e27565b63ffffffff169350505050919050565b6060600480546107b890612636565b80601f01602080910402602001604051908101604052809291908181526020018280546107e490612636565b80156108315780601f1061080657610100808354040283529160200191610831565b820191906000526020600020905b81548152906001019060200180831161081457829003601f168201915b5050505050905090565b600061084682610c64565b90506108a261089d82600760003373ffffffffffffffffffffffffffffffffffffffff1673ffffffffffffffffffffffffffffffffffffffff16815260200190815260200160002054610eea90919063ffffffff16565b610c8e565b6108eb600760003373ffffffffffffffffffffffffffffffffffffffff1673ffffffffffffffffffffffffffffffffffffffff1681526020019081526020016000205482610d57565b600760003373ffffffffffffffffffffffffffffffffffffffff1673ffffffffffffffffffffffffffffffffffffffff168152602001908152602001600020819055506109463361093b83610e27565b63ffffffff16610efe565b5050565b8063ffffffff1661095a33610583565b101561096557600080fd5b610975338263ffffffff16610f80565b60006109868263ffffffff16611002565b90506109d1600760003373ffffffffffffffffffffffffffffffffffffffff1673ffffffffffffffffffffffffffffffffffffffff1681526020019081526020016000205482610d43565b600760003373ffffffffffffffffffffffffffffffffffffffff1673ffffffffffffffffffffffffffffffffffffffff168152602001908152602001600020819055505050565b600080610a23610ac2565b9050610a30818585610b70565b600191505092915050565b6000600160008473ffffffffffffffffffffffffffffffffffffffff1673ffffffffffffffffffffffffffffffffffffffff16815260200190815260200160002060008373ffffffffffffffffffffffffffffffffffffffff1673ffffffffffffffffffffffffffffffffffffffff16815260200190815260200160002054905092915050565b600033905090565b610ad78383836001611016565b505050565b6000610ae88484610a3b565b90507fffffffffffffffffffffffffffffffffffffffffffffffffffffffffffffffff8114610b6a5781811015610b5a578281836040517ffb8f41b2000000000000000000000000000000000000000000000000000000008152600401610b519392919061274e565b60405180910390fd5b610b6984848484036000611016565b5b50505050565b600073ffffffffffffffffffffffffffffffffffffffff168373ffffffffffffffffffffffffffffffffffffffff1603610be25760006040517f96c6fd1e000000000000000000000000000000000000000000000000000000008152600401610bd99190612785565b60405180910390fd5b600073ffffffffffffffffffffffffffffffffffffffff168273ffffffffffffffffffffffffffffffffffffffff1603610c545760006040517fec442f05000000000000000000000000000000000000000000000000000000008152600401610c4b9190612785565b60405180910390fd5b610c5f8383836111ed565b505050565b6000610c738260000151611412565b9050919050565b6000610c868383611426565b905092915050565b610c978161149f565b610ca857610ca560006114ac565b90505b60008190506000610cb8826114c0565b9050608073ffffffffffffffffffffffffffffffffffffffff16637d23f1db600d836040518363ffffffff1660e01b8152600401610cf79291906127f5565b600060405180830381865afa158015610d14573d6000803e3d6000fd5b505050506040513d6000823e3d601f19601f82011682018060405250810190610d3d9190612895565b50505050565b6000610d4f838361151d565b905092915050565b6000610d638383611595565b905092915050565b6060610da160057f000000000000000000000000000000000000000000000000000000000000000061160e90919063ffffffff16565b905090565b6060610ddc60067f000000000000000000000000000000000000000000000000000000000000000061160e90919063ffffffff16565b905090565b6000610df4610dee6116be565b83611775565b9050919050565b600080600080610e0b86866117b6565b925092509250610e1b8282611812565b82935050505092915050565b6000610e3282611976565b610e4357610e406000611002565b91505b60008290506000610e53826114c0565b90506000608073ffffffffffffffffffffffffffffffffffffffff166373cc01546002846040518363ffffffff1660e01b8152600401610e949291906127f5565b602060405180830381865afa158015610eb1573d6000803e3d6000fd5b505050506040513d601f19601f82011682018060405250810190610ed591906128f3565b9050610ee081611983565b9350505050919050565b6000610ef6838361198d565b905092915050565b600073ffffffffffffffffffffffffffffffffffffffff168273ffffffffffffffffffffffffffffffffffffffff1603610f705760006040517fec442f05000000000000000000000000000000000000000000000000000000008152600401610f679190612785565b60405180910390fd5b610f7c600083836111ed565b5050565b600073ffffffffffffffffffffffffffffffffffffffff168273ffffffffffffffffffffffffffffffffffffffff1603610ff25760006040517f96c6fd1e000000000000000000000000000000000000000000000000000000008152600401610fe99190612785565b60405180910390fd5b610ffe826000836111ed565b5050565b600061100f826002611a06565b9050919050565b600073ffffffffffffffffffffffffffffffffffffffff168473ffffffffffffffffffffffffffffffffffffffff16036110885760006040517fe602df0500000000000000000000000000000000000000000000000000000000815260040161107f9190612785565b60405180910390fd5b600073ffffffffffffffffffffffffffffffffffffffff168373ffffffffffffffffffffffffffffffffffffffff16036110fa5760006040517f94280d620000000000000000000000000000000000000000000000000000000081526004016110f19190612785565b60405180910390fd5b81600160008673ffffffffffffffffffffffffffffffffffffffff1673ffffffffffffffffffffffffffffffffffffffff16815260200190815260200160002060008573ffffffffffffffffffffffffffffffffffffffff1673ffffffffffffffffffffffffffffffffffffffff1681526020019081526020016000208190555080156111e7578273ffffffffffffffffffffffffffffffffffffffff168473ffffffffffffffffffffffffffffffffffffffff167f8c5be1e5ebec7d5bd14f71427d1e84f3dd0314c0f7b2291e5b200ac8c7c3b925846040516111de919061201f565b60405180910390a35b50505050565b600073ffffffffffffffffffffffffffffffffffffffff168373ffffffffffffffffffffffffffffffffffffffff160361123f578060026000828254611233919061294f565b92505081905550611312565b60008060008573ffffffffffffffffffffffffffffffffffffffff1673ffffffffffffffffffffffffffffffffffffffff168152602001908152602001600020549050818110156112cb578381836040517fe450d38c0000000000000000000000000000000000000000000000000000000081526004016112c29392919061274e565b60405180910390fd5b8181036000808673ffffffffffffffffffffffffffffffffffffffff1673ffffffffffffffffffffffffffffffffffffffff16815260200190815260200160002081905550505b600073ffffffffffffffffffffffffffffffffffffffff168273ffffffffffffffffffffffffffffffffffffffff160361135b57806002600082825403925050819055506113a8565b806000808473ffffffffffffffffffffffffffffffffffffffff1673ffffffffffffffffffffffffffffffffffffffff168152602001908152602001600020600082825401925050819055505b8173ffffffffffffffffffffffffffffffffffffffff168373ffffffffffffffffffffffffffffffffffffffff167fddf252ad1be2c89b69c2b068fc378daa952ba7f163c4a11628f55a4df523b3ef83604051611405919061201f565b60405180910390a3505050565b600061141f826002611aa8565b9050919050565b600061143183611976565b6114425761143f6000611002565b92505b61144b82611976565b61145c576114596000611002565b91505b60008390506000839050600061149160028484608073ffffffffffffffffffffffffffffffffffffffff1663eb274b77611b42565b905080935050505092915050565b6000808214159050919050565b60006114b982600d611a06565b9050919050565b6060602067ffffffffffffffff8111156114dd576114dc612383565b5b6040519080825280601f01601f19166020018201604052801561150f5781602001600182028036833780820191505090505b509050816020820152919050565b600061152883611976565b611539576115366000611002565b92505b61154282611976565b611553576115506000611002565b91505b60008390506000839050600061158760028484608073ffffffffffffffffffffffffffffffffffffffff16622df619611b42565b905080935050505092915050565b60006115a083611976565b6115b1576115ae6000611002565b92505b6115ba82611976565b6115cb576115c86000611002565b91505b60008390506000839050600061160060028484608073ffffffffffffffffffffffffffffffffffffffff1663cc2cbeff611b42565b905080935050505092915050565b606060ff60001b831461162b5761162483611bd6565b90506116b8565b81805461163790612636565b80601f016020809104026020016040519081016040528092919081815260200182805461166390612636565b80156116b05780601f10611685576101008083540402835291602001916116b0565b820191906000526020600020905b81548152906001019060200180831161169357829003601f168201915b505050505090505b92915050565b60007f000000000000000000000000000000000000000000000000000000000000000073ffffffffffffffffffffffffffffffffffffffff163073ffffffffffffffffffffffffffffffffffffffff1614801561173a57507f000000000000000000000000000000000000000000000000000000000000000046145b15611767577f00000000000000000000000000000000000000000000000000000000000000009050611772565b61176f611c4a565b90505b90565b60006040517f190100000000000000000000000000000000000000000000000000000000000081528360028201528260228201526042812091505092915050565b600080600060418451036117fb5760008060006020870151925060408701519150606087015160001a90506117ed88828585611ce0565b95509550955050505061180b565b60006002855160001b9250925092505b9250925092565b6000600381111561182657611825612983565b5b82600381111561183957611838612983565b5b0315611972576001600381111561185357611852612983565b5b82600381111561186657611865612983565b5b0361189d576040517ff645eedf00000000000000000000000000000000000000000000000000000000815260040160405180910390fd5b600260038111156118b1576118b0612983565b5b8260038111156118c4576118c3612983565b5b03611909578060001c6040517ffce698f7000000000000000000000000000000000000000000000000000000008152600401611900919061201f565b60405180910390fd5b60038081111561191c5761191b612983565b5b82600381111561192f5761192e612983565b5b0361197157806040517fd78bce0c00000000000000000000000000000000000000000000000000000000815260040161196891906129b2565b60405180910390fd5b5b5050565b6000808214159050919050565b6000819050919050565b600061199883611976565b6119a9576119a66000611002565b92505b6119b282611976565b6119c3576119c06000611002565b91505b6000839050600083905060006119f860028484608073ffffffffffffffffffffffffffffffffffffffff1663650de1cf611b42565b905080935050505092915050565b60006060608073ffffffffffffffffffffffffffffffffffffffff166319e1c5c4611a30866114c0565b856040518363ffffffff1660e01b8152600401611a4e9291906129cd565b600060405180830381865afa158015611a6b573d6000803e3d6000fd5b505050506040513d6000823e3d601f19601f82011682018060405250810190611a949190612895565b9050611a9f81611dd4565b91505092915050565b60006060608073ffffffffffffffffffffffffffffffffffffffff16635fa55ca784866040518363ffffffff1660e01b8152600401611ae89291906127f5565b600060405180830381865afa158015611b05573d6000803e3d6000fd5b505050506040513d6000823e3d601f19601f82011682018060405250810190611b2e9190612895565b9050611b3981611dd4565b91505092915050565b60006060838388611b52896114c0565b611b5b896114c0565b6040518463ffffffff1660e01b8152600401611b79939291906129fd565b600060405180830381865afa158015611b96573d6000803e3d6000fd5b505050506040513d6000823e3d601f19601f82011682018060405250810190611bbf9190612895565b9050611bca81611de2565b91505095945050505050565b60606000611be383611df0565b90506000602067ffffffffffffffff811115611c0257611c01612383565b5b6040519080825280601f01601f191660200182016040528015611c345781602001600182028036833780820191505090505b5090508181528360208201528092505050919050565b60007f8b73c3c69bb8fe3d512ecc4cf759cc79239f7b179b0ffacaa9a75d522b39400f7f00000000000000000000000000000000000000000000000000000000000000007f00000000000000000000000000000000000000000000000000000000000000004630604051602001611cc5959493929190612a42565b60405160208183030381529060405280519060200120905090565b60008060007f7fffffffffffffffffffffffffffffff5d576e7357a4501ddfe92f46681b20a08460001c1115611d20576000600385925092509250611dca565b600060018888888860405160008152602001604052604051611d459493929190612a95565b6020604051602081039080840390855afa158015611d67573d6000803e3d6000fd5b505050602060405103519050600073ffffffffffffffffffffffffffffffffffffffff168173ffffffffffffffffffffffffffffffffffffffff1603611dbb57600060016000801b93509350935050611dca565b8060008060001b935093509350505b9450945094915050565b600060208201519050919050565b600060208201519050919050565b60008060ff8360001c169050601f811115611e37576040517fb3512b0c00000000000000000000000000000000000000000000000000000000815260040160405180910390fd5b80915050919050565b600081519050919050565b600082825260208201905092915050565b60005b83811015611e7a578082015181840152602081019050611e5f565b60008484015250505050565b6000601f19601f8301169050919050565b6000611ea282611e40565b611eac8185611e4b565b9350611ebc818560208601611e5c565b611ec581611e86565b840191505092915050565b60006020820190508181036000830152611eea8184611e97565b905092915050565b6000604051905090565b600080fd5b600080fd5b600073ffffffffffffffffffffffffffffffffffffffff82169050919050565b6000611f3182611f06565b9050919050565b611f4181611f26565b8114611f4c57600080fd5b50565b600081359050611f5e81611f38565b92915050565b6000819050919050565b611f7781611f64565b8114611f8257600080fd5b50565b600081359050611f9481611f6e565b92915050565b60008060408385031215611fb157611fb0611efc565b5b6000611fbf85828601611f4f565b9250506020611fd085828601611f85565b9150509250929050565b60008115159050919050565b611fef81611fda565b82525050565b600060208201905061200a6000830184611fe6565b92915050565b61201981611f64565b82525050565b60006020820190506120346000830184612010565b92915050565b60008060006060848603121561205357612052611efc565b5b600061206186828701611f4f565b935050602061207286828701611f4f565b925050604061208386828701611f85565b9150509250925092565b600060ff82169050919050565b6120a38161208d565b82525050565b60006020820190506120be600083018461209a565b92915050565b600080fd5b6000602082840312156120df576120de6120c4565b5b81905092915050565b600080604083850312156120ff576120fe611efc565b5b600061210d85828601611f4f565b925050602083013567ffffffffffffffff81111561212e5761212d611f01565b5b61213a858286016120c9565b9150509250929050565b60006020828403121561215a57612159611efc565b5b600061216884828501611f4f565b91505092915050565b60007fff0000000000000000000000000000000000000000000000000000000000000082169050919050565b6121a681612171565b82525050565b6121b581611f26565b82525050565b6000819050919050565b6121ce816121bb565b82525050565b600081519050919050565b600082825260208201905092915050565b6000819050602082019050919050565b61220981611f64565b82525050565b600061221b8383612200565b60208301905092915050565b6000602082019050919050565b600061223f826121d4565b61224981856121df565b9350612254836121f0565b8060005b8381101561228557815161226c888261220f565b975061227783612227565b925050600181019050612258565b5085935050505092915050565b600060e0820190506122a7600083018a61219d565b81810360208301526122b98189611e97565b905081810360408301526122cd8188611e97565b90506122dc6060830187612010565b6122e960808301866121ac565b6122f660a08301856121c5565b81810360c08301526123088184612234565b905098975050505050505050565b60006040828403121561232c5761232b6120c4565b5b81905092915050565b60006020828403121561234b5761234a611efc565b5b600082013567ffffffffffffffff81111561236957612368611f01565b5b61237584828501612316565b91505092915050565b600080fd5b7f4e487b7100000000000000000000000000000000000000000000000000000000600052604160045260246000fd5b6123bb82611e86565b810181811067ffffffffffffffff821117156123da576123d9612383565b5b80604052505050565b60006123ed611ef2565b90506123f982826123b2565b919050565b600080fd5b600080fd5b600080fd5b600067ffffffffffffffff82111561242857612427612383565b5b61243182611e86565b9050602081019050919050565b82818337600083830152505050565b600061246061245b8461240d565b6123e3565b90508281526020810184848401111561247c5761247b612408565b5b61248784828561243e565b509392505050565b600082601f8301126124a4576124a3612403565b5b81356124b484826020860161244d565b91505092915050565b6000602082840312156124d3576124d261237e565b5b6124dd60206123e3565b9050600082013567ffffffffffffffff8111156124fd576124fc6123fe565b5b6125098482850161248f565b60008301525092915050565b60006020828403121561252b5761252a611efc565b5b600082013567ffffffffffffffff81111561254957612548611f01565b5b612555848285016124bd565b91505092915050565b600063ffffffff82169050919050565b6125778161255e565b811461258257600080fd5b50565b6000813590506125948161256e565b92915050565b6000602082840312156125b0576125af611efc565b5b60006125be84828501612585565b91505092915050565b600080604083850312156125de576125dd611efc565b5b60006125ec85828601611f4f565b92505060206125fd85828601611f4f565b9150509250929050565b7f4e487b7100000000000000000000000000000000000000000000000000000000600052602260045260246000fd5b6000600282049050600182168061264e57607f821691505b60208210810361266157612660612607565b5b50919050565b600061267336836124bd565b9050919050565b612683816121bb565b811461268e57600080fd5b50565b6000813590506126a08161267a565b92915050565b6000604082840312156126bc576126bb61237e565b5b6126c660406123e3565b905060006126d684828501612691565b600083015250602082013567ffffffffffffffff8111156126fa576126f96123fe565b5b6127068482850161248f565b60208301525092915050565b600061271e36836126a6565b9050919050565b600060408201905061273a60008301856121c5565b61274760208301846121c5565b9392505050565b600060608201905061276360008301866121ac565b6127706020830185612010565b61277d6040830184612010565b949350505050565b600060208201905061279a60008301846121ac565b92915050565b600081519050919050565b600082825260208201905092915050565b60006127c7826127a0565b6127d181856127ab565b93506127e1818560208601611e5c565b6127ea81611e86565b840191505092915050565b600060408201905061280a600083018561209a565b818103602083015261281c81846127bc565b90509392505050565b60006128386128338461240d565b6123e3565b90508281526020810184848401111561285457612853612408565b5b61285f848285611e5c565b509392505050565b600082601f83011261287c5761287b612403565b5b815161288c848260208601612825565b91505092915050565b6000602082840312156128ab576128aa611efc565b5b600082015167ffffffffffffffff8111156128c9576128c8611f01565b5b6128d584828501612867565b91505092915050565b6000815190506128ed81611f6e565b92915050565b60006020828403121561290957612908611efc565b5b6000612917848285016128de565b91505092915050565b7f4e487b7100000000000000000000000000000000000000000000000000000000600052601160045260246000fd5b600061295a82611f64565b915061296583611f64565b925082820190508082111561297d5761297c612920565b5b92915050565b7f4e487b7100000000000000000000000000000000000000000000000000000000600052602160045260246000fd5b60006020820190506129c760008301846121c5565b92915050565b600060408201905081810360008301526129e781856127bc565b90506129f6602083018461209a565b9392505050565b6000606082019050612a12600083018661209a565b8181036020830152612a2481856127bc565b90508181036040830152612a3881846127bc565b9050949350505050565b600060a082019050612a5760008301886121c5565b612a6460208301876121c5565b612a7160408301866121c5565b612a7e6060830185612010565b612a8b60808301846121ac565b9695505050505050565b6000608082019050612aaa60008301876121c5565b612ab7602083018661209a565b612ac460408301856121c5565b612ad160608301846121c5565b9594505050505056fea26469706673582212201d635051b8b91f77015c8f78640a3ff33c7e79a5c517c9f42579f7514f042ed464736f6c63430008140033",
  "devdoc": {
    "errors": {
      "ECDSAInvalidSignature()": [
        {
          "details": "The signature derives the `address(0)`."
        }
      ],
      "ECDSAInvalidSignatureLength(uint256)": [
        {
          "details": "The signature has an invalid length."
        }
      ],
      "ECDSAInvalidSignatureS(bytes32)": [
        {
          "details": "The signature has an S value that is in the upper half order."
        }
      ],
      "ERC20InsufficientAllowance(address,uint256,uint256)": [
        {
          "details": "Indicates a failure with the `spender`s `allowance`. Used in transfers.",
          "params": {
            "allowance": "Amount of tokens a `spender` is allowed to operate with.",
            "needed": "Minimum amount required to perform a transfer.",
            "spender": "Address that may be allowed to operate on tokens without being their owner."
          }
        }
      ],
      "ERC20InsufficientBalance(address,uint256,uint256)": [
        {
          "details": "Indicates an error related to the current `balance` of a `sender`. Used in transfers.",
          "params": {
            "balance": "Current balance for the interacting account.",
            "needed": "Minimum amount required to perform a transfer.",
            "sender": "Address whose tokens are being transferred."
          }
        }
      ],
      "ERC20InvalidApprover(address)": [
        {
          "details": "Indicates a failure with the `approver` of a token to be approved. Used in approvals.",
          "params": {
            "approver": "Address initiating an approval operation."
          }
        }
      ],
      "ERC20InvalidReceiver(address)": [
        {
          "details": "Indicates a failure with the token `receiver`. Used in transfers.",
          "params": {
            "receiver": "Address to which tokens are being transferred."
          }
        }
      ],
      "ERC20InvalidSender(address)": [
        {
          "details": "Indicates a failure with the token `sender`. Used in transfers.",
          "params": {
            "sender": "Address whose tokens are being transferred."
          }
        }
      ],
      "ERC20InvalidSpender(address)": [
        {
          "details": "Indicates a failure with the `spender` to be approved. Used in approvals.",
          "params": {
            "spender": "Address that may be allowed to operate on tokens without being their owner."
          }
        }
      ]
    },
    "events": {
      "Approval(address,address,uint256)": {
        "details": "Emitted when the allowance of a `spender` for an `owner` is set by a call to {approve}. `value` is the new allowance."
      },
      "EIP712DomainChanged()": {
        "details": "MAY be emitted to signal that the domain could have changed."
      },
      "Transfer(address,address,uint256)": {
        "details": "Emitted when `value` tokens are moved from one account (`from`) to another (`to`). Note that `value` may be zero."
      }
    },
    "kind": "dev",
    "methods": {
      "allowance(address,address)": {
        "details": "See {IERC20-allowance}."
      },
      "approve(address,uint256)": {
        "details": "See {IERC20-approve}. NOTE: If `value` is the maximum `uint256`, the allowance is not updated on `transferFrom`. This is semantically equivalent to an infinite approval. Requirements: - `spender` cannot be the zero address."
      },
      "balanceOf(address)": {
        "details": "See {IERC20-balanceOf}."
      },
      "decimals()": {
        "details": "Returns the number of decimals used to get its user representation. For example, if `decimals` equals `2`, a balance of `505` tokens should be displayed to a user as `5.05` (`505 / 10 ** 2`). Tokens usually opt for a value of 18, imitating the relationship between Ether and Wei. This is the default value returned by this function, unless it's overridden. NOTE: This information is only used for _display_ purposes: it in no way affects any of the arithmetic of the contract, including {IERC20-balanceOf} and {IERC20-transfer}."
      },
      "eip712Domain()": {
        "details": "See {IERC-5267}."
      },
      "name()": {
        "details": "Returns the name of the token."
      },
      "symbol()": {
        "details": "Returns the symbol of the token, usually a shorter version of the name."
      },
      "totalSupply()": {
        "details": "See {IERC20-totalSupply}."
      },
      "transfer(address,uint256)": {
        "details": "See {IERC20-transfer}. Requirements: - `to` cannot be the zero address. - the caller must have a balance of at least `value`."
      },
      "transferFrom(address,address,uint256)": {
        "details": "See {IERC20-transferFrom}. Emits an {Approval} event indicating the updated allowance. This is not required by the EIP. See the note at the beginning of {ERC20}. NOTE: Does not update the allowance if the current allowance is the maximum `uint256`. Requirements: - `from` and `to` cannot be the zero address. - `from` must have a balance of at least `value`. - the caller must have allowance for ``from``'s tokens of at least `value`."
      }
    },
    "version": 1
  },
  "userdoc": {
    "errors": {
      "SignerNotMessageSender()": [
        {
          "notice": "Emitted when the signer is not the message sender"
        }
      ],
      "SignerNotOwner()": [
        {
          "notice": "Emitted when the signer is not the specified owner"
        }
      ]
    },
    "kind": "user",
    "methods": {},
    "version": 1
  },
  "storageLayout": {
    "storage": [
      {
        "astId": 15761,
        "contract": "contracts/WrappingERC20.sol:WrappingERC20",
        "label": "_balances",
        "offset": 0,
        "slot": "0",
        "type": "t_mapping(t_address,t_uint256)"
      },
      {
        "astId": 15767,
        "contract": "contracts/WrappingERC20.sol:WrappingERC20",
        "label": "_allowances",
        "offset": 0,
        "slot": "1",
        "type": "t_mapping(t_address,t_mapping(t_address,t_uint256))"
      },
      {
        "astId": 15769,
        "contract": "contracts/WrappingERC20.sol:WrappingERC20",
        "label": "_totalSupply",
        "offset": 0,
        "slot": "2",
        "type": "t_uint256"
      },
      {
        "astId": 15771,
        "contract": "contracts/WrappingERC20.sol:WrappingERC20",
        "label": "_name",
        "offset": 0,
        "slot": "3",
        "type": "t_string_storage"
      },
      {
        "astId": 15773,
        "contract": "contracts/WrappingERC20.sol:WrappingERC20",
        "label": "_symbol",
        "offset": 0,
        "slot": "4",
        "type": "t_string_storage"
      },
      {
        "astId": 17354,
        "contract": "contracts/WrappingERC20.sol:WrappingERC20",
        "label": "_nameFallback",
        "offset": 0,
        "slot": "5",
        "type": "t_string_storage"
      },
      {
        "astId": 17356,
        "contract": "contracts/WrappingERC20.sol:WrappingERC20",
        "label": "_versionFallback",
        "offset": 0,
        "slot": "6",
        "type": "t_string_storage"
      },
      {
        "astId": 18791,
        "contract": "contracts/WrappingERC20.sol:WrappingERC20",
        "label": "_encBalances",
        "offset": 0,
        "slot": "7",
        "type": "t_mapping(t_address,t_userDefinedValueType(euint32)12)"
      }
    ],
    "types": {
      "t_address": {
        "encoding": "inplace",
        "label": "address",
        "numberOfBytes": "20"
      },
      "t_mapping(t_address,t_mapping(t_address,t_uint256))": {
        "encoding": "mapping",
        "key": "t_address",
        "label": "mapping(address => mapping(address => uint256))",
        "numberOfBytes": "32",
        "value": "t_mapping(t_address,t_uint256)"
      },
      "t_mapping(t_address,t_uint256)": {
        "encoding": "mapping",
        "key": "t_address",
        "label": "mapping(address => uint256)",
        "numberOfBytes": "32",
        "value": "t_uint256"
      },
      "t_mapping(t_address,t_userDefinedValueType(euint32)12)": {
        "encoding": "mapping",
        "key": "t_address",
        "label": "mapping(address => euint32)",
        "numberOfBytes": "32",
        "value": "t_userDefinedValueType(euint32)12"
      },
      "t_string_storage": {
        "encoding": "bytes",
        "label": "string",
        "numberOfBytes": "32"
      },
      "t_uint256": {
        "encoding": "inplace",
        "label": "uint256",
        "numberOfBytes": "32"
      },
      "t_userDefinedValueType(euint32)12": {
        "encoding": "inplace",
        "label": "euint32",
        "numberOfBytes": "32"
      }
    }
  }
}